:0300AB0002006AE6
:01006A003263
:03006B0002015639
:10015600C0E0C0D075D000C000784AE618466007F7
:1001660008E616187001167845E66001167827E647
:100176001846600708E61618700116D37834E69418
:100186000018E69400400708E61618700116782F46
:1001960006785706E618700106783C06E6187001E0
:1001A60006C3783CE694E818E69403401276000805
:1001B6007600784606E6943C400576007865067833
:1001C6005406E618700106C37854E694E818E694D7
:1001D6000340127600087600783006E6943C400527
:0C01E6007600784C06D000D0D0D0E0327B
:0300A30001350024
:1003110075A080E4F5A1EF540FFFE5A054F04FF56F
:0B032100A043A040E5A030E4FBAFCFFC
:01032C0022AE
:10028C00782FE6C39401403DE4F67F071203117EFC
:10029C00007831EEF608EFF6784E26F618EE36F6C4
:1002AC00783706E6C3940A401CE4F6784DE6FE085F
:1002BC00E6FF7C007D0A120003782CA607E4784D3B
:0602CC00F608F6D2022242
:1000AE007834E6640118467002D201784AE61846A2
:1000BE006005C20202014D300241C202782CE67880
:1000CE0041F67843E67011900000F0A3740AF0A395
:1000DE00E4F0A374C8F07F027841E6FDD3900001EE
:1000EE00E09D900000E09400500EC3900003E09D50
:1000FE00900002E0940050037822067845E670479F
:10010E007822E6C39F40287844E664016031782760
:10011E00E618467006C201C200D2827826764E08D4
:10012E007620E47844F67849760108762C801078AB
:10013E0044E6600B76017849760108762CC2827807
:07014E00457632E47822F649
:010155002287
:100058001202D2783576FF12006E12028C1200AEB0
:0200680080F521
:1002D20053A87F75883DE4F593F594F595F58075FF
:1002E200ADFFF5AEF5AFF5AC75C5FFF5C6F5C7F5D3
:1002F200C4759704F58FF596F5A775C820F58A752C
:0F03020090867592F943AA0243900143A8802286
:10006E00E4FFFEE4FD3086047C0180027C00BC01CE
:10007E0004ED4401FD900000E06D6004EDF0E4FF3E
:10008E000EEED3941450070FEFC3940A40D5AF056C
:04009E007836A60703
:0100A200223B
:030000000201F208
:1001F20078FFE4F6D8FD9000007F007E01E4F0A3D2
:0A020200DFFCDEFA75816502024799
:10020C00020058E493A3F8E493A34003F68001F2B0
:10021C0008DFF48029E493A3F85407240CC8C333F3
:10022C00C4540F4420C8834004F456800146F6DFC2
:10023C00E4800B01020408102040809000A3E47EAF
:10024C00019360BCA3FF543F30E509541FFEE493B7
:10025C00A360010ECF54C025E060A840B8E493A37E
:10026C00FAE493A3F8E493A3C8C582C8CAC583CAA9
:10027C00F0A3C8C582C8CAC583CADFE9DEE780BE61
:0100A6000059
:10000300BC000BBE0029EF8DF084FFADF022E4CCE1
:10001300F875F008EF2FFFEE33FEEC33FCEE9DECAA
:10002300984005FCEE9DFE0FD5F0E9E4CEFD22EDF0
:10003300F8F5F0EE8420D21CFEADF075F008EF2F3A
:10004300FFED33FD4007985006D5F0F222C398FD2B
:050053000FD5F0EA22C8
:00000001FF
